D0145693374  001022000000009714170101001           00089600017600ÃÞ»ÝÄºÞÙÌ DGMRJA05       454830838042500001L         BK00      
D0145693374  002022000000009714170101001           00089600017600ÃÞ»ÝÄºÞÙÌ DGMRJA05       454830838047000001L         PK00      
D0145693374  003022000000009714530702001           00007800001650ÃÞ»ÝÄºÞÙÌ DGBPJB01       45482043460510000125-27     BK00      
D0145693374  004022000000009123360701001           00015080003190ÃÞ»ÝÄºÞÙÌ DGBPJC00       454820434608200002F         BK00      
D0145693374  005022000000009123370701001           00013520002860ÃÞ»ÝÄºÞÙÌ DGBPJC50       454830335904400001F         NV01      
D0145693374  006022000000009123370701001           00013520002860ÃÞ»ÝÄºÞÙÌ DGBPJC50       454820434637200001F         WH00      
D0145693374  007022000000008495730802001           00015080003190ÃÞ»ÝÄºÞÙÌ DGCNJB03       45489517220920000122-24     BK00      
D0145693374  008022000000009741440802001           00007800001650ÃÞ»ÝÄºÞÙÌ DGCRJB00       45483083791600000122-24     BK00      
D0145693380  001022000000009730270101001           00044240008690Ùº¯¸      QGMQJA00       454830351990500001L         RD00      
D0145693380  002022000000009730280101001           00053200010450Ùº¯¸      QGMQJA03       454830352031400001L         WH00      
D0145693380  003022000000009730300107001           00053460010890Ùº¯¸      QGMQJD01       45483035254320000192        GY01      
D0145693380  004022000000009730300107001           00053460010890Ùº¯¸      QGMQJD01       45483035255620000182        NV00      
D0145693380  005022000000009730300107001           00053460010890Ùº¯¸      QGMQJD01       45483035255790000185        NV00      
D0145693380  006022000000009730410101001           00064800013200Ùº¯¸      QGMRJA13W      454830840273800001LL        NV00      
D0145693380  007022000000009730410101001           00064800013200Ùº¯¸      QGMRJA13W      454830840278300001M         RD00      
D0145693380  008022000000009730360107001           00067200013200Ùº¯¸      QGMRJD04       45483084089520000185        NV00      
D0145693395  001022000000009730360107001           00067200013200Ùº¯¸      QGMRJD04       45483084089900000176        NV01      
D0145693395  002022000000009730430107001           00059400012100Ùº¯¸      QGMRJD05       45483084094850000188        NV00      
D0145693395  003022000000009730760307001           00059400012100Ùº¯¸      QGWRJD01       45483084170220000111        NV00      
D0145693395  004022000000008492740510001           00023000005060Ùº¯¸      QGBNJC70       454895185110500001F         GY00      
D0145693395  005022000000008492720503001           00130000027500Ùº¯¸      QGMNJH00W      4548951872650000013L        BK00      
D0145693395  006022000000008492720503001           00130000027500Ùº¯¸      QGMNJH00W      454895187268100001M         BK00      
D0145693395  007022000000008492720503001           00130000027500Ùº¯¸      QGMNJH00W      4548951872759000013L        NVWH      
D0145693395  008022000000008494880507001           00124800026400Ùº¯¸      QGWNJH00W      454895189393800001M         PK00      
D0145693400  001022000000009123750701001           00014500003190Ùº¯¸      QGBPJC00       454830825517400001F         NV01      
D0145693400  002022000000009431980703001           00029500006490Ùº¯¸      QGBQJH00       454830351930100001F         BK00      
D0145693400  003022000000009730610702001           00006240001320Ùº¯¸      QGBRJB07       45483083985360000125-27     BK00      
D0145693400  004022000000006890020802001           00008500001870Ùº¯¸      QGL0079        45490793890990000122-24     N151      
D0145693421  001022000000009714110510001           00020280004290ÃÞ»ÝÄºÞÙÌ DGBRJC31       454830812926000001F         BK00      
D0145693421  002022000000009714100503001           00104000022000ÃÞ»ÝÄºÞÙÌ DGMRJH01W      454830812936900001O         BL00      
D0145693421  003022000000009714100503001           00104000022000ÃÞ»ÝÄºÞÙÌ DGMRJH01W      454830812938300001L         GY00      
D0145693421  004022000000009714590701001           00015080003190ÃÞ»ÝÄºÞÙÌ DGBRJC07       454830837856900001F         WH00      
D0145693421  005022000000009714600701001           00013520002860ÃÞ»ÝÄºÞÙÌ DGBRJC55       454830837892700001F         BK00      
D0145693437  001022000000009730300107001           00053460010890Ùº¯¸      QGMQJD01       45483035255550000179        NV00      
D0145693437  002022000000009730410101001           00064800013200Ùº¯¸      QGMRJA13W      454830840272100001L         NV00      
D0145693437  003022000000006889320702001           00004500000990Ùº¯¸      QG0074         45490794154770000225-27     N942      
D0145693437  004022000000008492750702001           00005000001100Ùº¯¸      QGBNJB00       45489518495390000225-27     BK00      
D0145693437  005022000000009730680704001           00012500002750Ùº¯¸      QGBRJD50       454830839958800001F         WH00      
D0145693442  001022000000009124300107001           00042660008690½Ø¸¿Ý     RGMPJD02       45483086138680000185        BK00      
D0145693442  002022000000009124300107001           00042660008690½Ø¸¿Ý     RGMPJD02       45482047610690000282        NV00      
D0145693442  003022000000009124300107001           00042660008690½Ø¸¿Ý     RGMPJD02       45482047610760000185        NV00      
D0145693458  001022000000009123290107001           00055440010890ÃÞ»ÝÄºÞÙÌ DGMPJD11       45482043557940000182        GY00      
D0145693458  002022000000009123290107001           00055440010890ÃÞ»ÝÄºÞÙÌ DGMPJD11       45482043558170000188        GY00      
D0145693458  003022000000009123290107001           00055440010890ÃÞ»ÝÄºÞÙÌ DGMPJD11       45482043558550000179        NV00      
D0145693463  001022000000009730280101001           00053200010450Ùº¯¸      QGMQJA03       454830352031400001L         WH00      
D0145693463  002022000000009730430107001           00059400012100Ùº¯¸      QGMRJD05       45483084093860000179        GY00      
D0145693463  003022000000009730430107001           00059400012100Ùº¯¸      QGMRJD05       45483084094610000182        NV00      
D0145693463  004022000000009730720308001           00049840009790Ùº¯¸      QGWQJE00       45483035489430000113        NV00      
D0145693463  005022000000009730740301001           00049840009790Ùº¯¸      QGWRJA04       454830841438000001M         ML00      
D0145693463  006022000000006889320702001           00004500000990Ùº¯¸      QG0074         45490794154530000125-27     N151      
D0145693463  007022000000009730600702001           00004500000990Ùº¯¸      QGBRJB06       45483083985290000125-27     RD00      
D0145693479  001022000000009124300107001           00042660008690½Ø¸¿Ý     RGMPJD02       45482047610520000179        NV00      
D0145693484  001022000000009123290107001           00055440010890ÃÞ»ÝÄºÞÙÌ DGMPJD11       45482043558790000185        NV00      
D0145693490  001022000000009714530702001           00007800001650ÃÞ»ÝÄºÞÙÌ DGBPJB01       45482043460750000125-27     WH00      
D0145693505  001022000000009730260102001           00055440010890Ùº¯¸      QGMQJB00       454830352092500001L         WH00      
D0145693505  002022000000009730300107001           00053460010890Ùº¯¸      QGMQJD01       45483035255170000192        GY02      
D0145693505  003022000000009730380101001           00053200010450Ùº¯¸      QGMRJA09       454830840204200001L         BL00      
D0145693505  004022000000009730320106001           00067200013200Ùº¯¸      QGMRJK03       454830841283600001L         BK00      
D0145693505  005022000000009730740301001           00049840009790Ùº¯¸      QGWRJA04       454830841436600001L         ML00      
D0145693505  006022000000009730840307001           00059400012100Ùº¯¸      QGWRJD03       45483084173810000111        WH00      
D0145693505  007022000000009123750701001           00014500003190Ùº¯¸      QGBPJC00       454830825517400001F         NV01      
D0145693505  008022000000009125340801001           00014500003190Ùº¯¸      QGCPJC00       454820447138800001F         NV00      
D0145693510  001022000000009124300107001           00042660008690½Ø¸¿Ý     RGMPJD02       45482047609870000179        GY02      
D0145693510  002022000000009741150107001           00042660008690½Ø¸¿Ý     RGMPJD06       45482047627520000188        BL00      
D0145693510  003022000000009741150107001           00042660008690½Ø¸¿Ý     RGMPJD06       45482047628200000188        NV00      
D0145693510  004022000000009741110101001           00031860006490½Ø¸¿Ý     RGMRJA15       454830861872600001L         BL00      
D0145693526  001022000000007701690703001           00046800009900ÃÞ»ÝÄºÞÙÌ DGBLJH00       453637100500000001F         WHBL      
D0145693526  002022000000009714530702001           00007800001650ÃÞ»ÝÄºÞÙÌ DGBPJB01       45482043460680000125-27     GY00      
D0145693531  001022000000009730260102001           00055440010890Ùº¯¸      QGMQJB00       454830352082600001L         NV00      
D0145693531  002022000000009730300107001           00053460010890Ùº¯¸      QGMQJD01       45483035254180000185        GY01      
D0145693531  003022000000009730430107001           00059400012100Ùº¯¸      QGMRJD05       45483084093170000179        BK00      
D0145693531  004022000000009730510107001           00072800014300Ùº¯¸      QGMRJD10       45483084106340000185        NV00      
D0145693531  005022000000009730740301001           00049840009790Ùº¯¸      QGWRJA04       454830841436600001L         ML00      
D0145693531  006022000000009730840307001           00059400012100Ùº¯¸      QGWRJD03       4548308417411000019         WH00      
D0145693531  007022000000009730770308001           00053460010890Ùº¯¸      QGWRJE01       4548308417886000019         NV00      
D0145693531  008022000000009730670703001           00044500009790Ùº¯¸      QGBRJH05       454830839969400001F         WH00      
D0145693547  001022000000009125340801001           00014500003190Ùº¯¸      QGCPJC00       454820447138800001F         NV00      
D0145693547  002022000000009447050805001           00018000003960Ùº¯¸      QGCQJC51       454830353255300001F         WH00      
D0145693552  001022000000009124300107001           00042660008690½Ø¸¿Ý     RGMPJD02       45482047610830000188        NV00      
D0145693568  001022000000009123290107001           00055440010890ÃÞ»ÝÄºÞÙÌ DGMPJD11       45482043557870000179        GY00      
D0145693568  002022000000009123290107001           00055440010890ÃÞ»ÝÄºÞÙÌ DGMPJD11       45482043558550000179        NV00      
D0145693573  001022000000009714180101001           00084000016500ÃÞ»ÝÄºÞÙÌ DGMRJA07       454830838076000001O         BK00      
D0145693573  002022000000009714190101001           00067200013200ÃÞ»ÝÄºÞÙÌ DGMRJA10       454830838113200001O         WH00      
D0145693573  003022000000009714200101001           00061600012100ÃÞ»ÝÄºÞÙÌ DGMRJA11       454830838127900001L         WH00      
D0145693573  004022000000009741320308001           00078400015400ÃÞ»ÝÄºÞÙÌ DGWRJE04       45483083942860000164        GY00      
D0145693573  005022000000009741320308001           00078400015400ÃÞ»ÝÄºÞÙÌ DGWRJE04       45483083942930000167        GY00      
D0145693573  006022000000009714520702001           00007800001650ÃÞ»ÝÄºÞÙÌ DGBPJB00       45482043460440000125-27     WH00      
D0145693573  007022000000009123360701001           00015080003190ÃÞ»ÝÄºÞÙÌ DGBPJC00       454820434608200001F         BK00      
D0145693573  008022000000009125970801001           00015080003190ÃÞ»ÝÄºÞÙÌ DGCPJC00       454820434675400001F         BK00      
D0145693589  001022000000009730270101001           00044240008690Ùº¯¸      QGMQJA00       454830351993600001L         WH00      
D0145693589  002022000000009730300107001           00053460010890Ùº¯¸      QGMQJD01       45483035253880000176        GY01      
D0145693589  003022000000009730300107001           00053460010890Ùº¯¸      QGMQJD01       45483035255170000192        GY02      
D0145693589  004022000000009730250106001           00072800014300Ùº¯¸      QGMQJK00       454830353772500001L         NV00      
D0145693589  005022000000009730320106001           00067200013200Ùº¯¸      QGMRJK03       454830841292800001LL        NV00      
D0145693589  006022000000006889320702001           00004500000990Ùº¯¸      QG0074         45490794154530000125-27     N151      
D0145693589  007022000000009447050805001           00018000003960Ùº¯¸      QGCQJC51       454830353253900001F         NV00      
D0145693589  008022000000009731020801001           00018000003960Ùº¯¸      QGCRJC53       454830840018500001F         WH00      
D0145693594  002022000000009124300107001           00042660008690½Ø¸¿Ý     RGMPJD02       45483086138510000182        BK00      
D0145693594  003022000000009124300107001           00042660008690½Ø¸¿Ý     RGMPJD02       45483086138820000192        BK00      
D0145693594  004022000000009124300107001           00042660008690½Ø¸¿Ý     RGMPJD02       45482047610140000188        GY02      
D0145693594  005022000000009741040101001           00035640007260½Ø¸¿Ý     RGMRJA02       454830861481000001L         WH00      
D0145693594  006022000000009741110101001           00031860006490½Ø¸¿Ý     RGMRJA15       454830861876400001L         NV00      
D0145693594  008022000000009741010106001           00042660008690½Ø¸¿Ý     RGMRJK01       454830862647900001L         BK00      
D0145693600  001022000000009714100503001           00104000022000ÃÞ»ÝÄºÞÙÌ DGMRJH01W      454830812936900001O         BL00      
D0145693600  002022000000009714100503001           00104000022000ÃÞ»ÝÄºÞÙÌ DGMRJH01W      454830812939000001M         GY00      
D0145693615  001022000000009123360701001           00015080003190ÃÞ»ÝÄºÞÙÌ DGBPJC00       454830335903700001F         NV01      
D0145693615  002022000000009714510702001           00005200001100ÃÞ»ÝÄºÞÙÌ DGBRJB00       45483083783160000125-27     GY00      
D0145693615  003022000000009714510702001           00005200001100ÃÞ»ÝÄºÞÙÌ DGBRJB00       45483083783300000125-27     WH00      
D0145693620  001022000000009730440107001           00072800014300Ùº¯¸      QGMRJD07       45483084097370000179        NV00      
D0145693620  002022000000009730760307001           00059400012100Ùº¯¸      QGWRJD01       4548308417046000017         NV00      
D0145693620  003022000000006889320702001           00004500000990Ùº¯¸      QG0074         45490794154770000125-27     N942      
D0145693620  004022000000008492750702001           00005000001100Ùº¯¸      QGBNJB00       45489518495600000125-27     WH00      
D0145693636  001022000000009124300107001           00042660008690½Ø¸¿Ý     RGMPJD02       45483086138750000188        BK00      
D0145693636  002022000000009124300107001           00042660008690½Ø¸¿Ý     RGMPJD02       45482047610450000176        NV00      
D0145693636  003022000000009124300107001           00042660008690½Ø¸¿Ý     RGMPJD02       45482047610830000188        NV00      
D0145693636  004022000000009741150107001           00042660008690½Ø¸¿Ý     RGMPJD06       45482047628200000188        NV00      
D0145693641  001022000000009714100503001           00104000022000ÃÞ»ÝÄºÞÙÌ DGMRJH01W      454830812934500001L         BL00      
D0145693657  001022000000009714190101001           00067200013200ÃÞ»ÝÄºÞÙÌ DGMRJA10       454830838103300001L         BK00      
D0145693657  002022000000009714530702001           00007800001650ÃÞ»ÝÄºÞÙÌ DGBPJB01       45482043460680000125-27     GY00      
D0145693662  001022000000009730380101001           00053200010450Ùº¯¸      QGMRJA09       454830840205900001LL        BL00      
D0145693662  002022000000009730410101001           00064800013200Ùº¯¸      QGMRJA13W      454830840281300001LL        WH00      
D0145693662  003022000000009730430107001           00059400012100Ùº¯¸      QGMRJD05       45483084093310000185        BK00      
D0145693662  004022000000008492720503001           00130000027500Ùº¯¸      QGMNJH00W      454830870361300001M         WH00      
D0145693662  005022000000009731050804001           00013000002750Ùº¯¸      QGCRJD00       454830840044400001F         WH00      
D0145693678  001022000000009741040101001           00035640007260½Ø¸¿Ý     RGMRJA02       454830861482700001LL        WH00      
D0145693683  001022000000009714110510001           00020280004290ÃÞ»ÝÄºÞÙÌ DGBRJC31       454830812926000001F         BK00      
D0145693699  001022000000009730380101001           00053200010450Ùº¯¸      QGMRJA09       454830840217200001LL        WH00      
D0145693699  002022000000009730430107001           00059400012100Ùº¯¸      QGMRJD05       45483084093240000182        BK00      
D0145693699  003022000000009730500107001           00053460010890Ùº¯¸      QGMRJD09       45483084101390000182        GY00      
D0145693699  004022000000008492730510001           00020000004400Ùº¯¸      QGBNJC00       454895184987400001F         BK00      
D0145693699  005022000000008492720503001           00130000027500Ùº¯¸      QGMNJH00W      454895187278000001M         NVWH      
D0145693699  006022000000007710980702001           00005000001100Ùº¯¸      QG0073         45490794154150000125-27     N151      
D0145693699  007022000000006889320702001           00004500000990Ùº¯¸      QG0074         45490794154770000225-27     N942      
D0145693699  008022000000008492750702001           00005000001100Ùº¯¸      QGBNJB00       45489518495600000125-27     WH00      
D0145693704  001022000000009731060804001           00012500002750Ùº¯¸      QGCRJD50       454830840047500001F         WH00      
D0145693710  001022000000009124300107001           00042660008690½Ø¸¿Ý     RGMPJD02       45482047609940000182        GY02      
D0145693725  001022000000009123290107001           00055440010890ÃÞ»ÝÄºÞÙÌ DGMPJD11       45482043557940000182        GY00      
D0145693730  001022000000009730300107001           00053460010890Ùº¯¸      QGMQJD01       45483035254700000179        GY02      
D0145693730  002022000000009730300107001           00053460010890Ùº¯¸      QGMQJD01       45483035255790000185        NV00      
D0145693730  003022000000009730300107001           00053460010890Ùº¯¸      QGMQJD01       45483035255860000188        NV00      
D0145693730  004022000000009730380101001           00053200010450Ùº¯¸      QGMRJA09       454830840206600001M         BL00      
D0145693730  005022000000009730430107001           00059400012100Ùº¯¸      QGMRJD05       45483084093550000192        BK00      
D0145693730  006022000000009730430107001           00059400012100Ùº¯¸      QGMRJD05       45483084094920000192        NV00      
D0145693730  007022000000009125340801001           00014500003190Ùº¯¸      QGCPJC00       454820447140100001F         WH00      
D0145693746  001022000000009741050101001           00034020006930½Ø¸¿Ý     RGMRJA03       454830861522000001M         BK00      
D0145693751  001022000000009714100503001           00104000022000ÃÞ»ÝÄºÞÙÌ DGMRJH01W      454830812934500001L         BL00      
D0145693751  002022000000009714100503001           00104000022000ÃÞ»ÝÄºÞÙÌ DGMRJH01W      454830812938300001L         GY00      
D0145693767  001022000000009714190101001           00067200013200ÃÞ»ÝÄºÞÙÌ DGMRJA10       454830838105700001O         BK00      
D0145693767  002022000000009714570701001           00025480005390ÃÞ»ÝÄºÞÙÌ DGBRJC06       454830837851400001F         GY00      
D0145693772  001022000000009730430107001           00059400012100Ùº¯¸      QGMRJD05       45483084094850000188        NV00      
D0145693772  002022000000009730440107001           00072800014300Ùº¯¸      QGMRJD07       45483084098050000179        RD00      
D0145693772  003022000000009730500107001           00053460010890Ùº¯¸      QGMRJD09       45483084101220000179        GY00      
D0145693772  004022000000006889320702001           00004500000990Ùº¯¸      QG0074         45490794154770000225-27     N942      
D0145693772  005022000000009123760701001           00013000002860Ùº¯¸      QGBPJC50       454830825530300001F         OR00      
D0145693772  006022000000009447050805001           00018000003960Ùº¯¸      QGCQJC51       454830353255300001F         WH00      
D0145693788  001022000000009741120101001           00037260007590½Ø¸¿Ý     RGMRJA16       454830861909900001M         NV00      
D0145693793  001022000000009123290107001           00055440010890ÃÞ»ÝÄºÞÙÌ DGMPJD11       45482043558000000185        GY00      
D0145693809  001022000000009714210107001           00089600017600ÃÞ»ÝÄºÞÙÌ DGMRJD05       45483083860900000188        GY00      
D0145693809  002022000000009741440802001           00007800001650ÃÞ»ÝÄºÞÙÌ DGCRJB00       45483083791600000122-24     BK00      
D0145693814  001022000000009730300107001           00053460010890Ùº¯¸      QGMQJD01       45483035255550000179        NV00      
D0145693814  002022000000009730300107001           00053460010890Ùº¯¸      QGMQJD01       45483035255620000182        NV00      
D0145693814  003022000000009730360107001           00067200013200Ùº¯¸      QGMRJD04       45483084089380000179        NV00      
D0145693814  004022000000009730840307001           00059400012100Ùº¯¸      QGWRJD03       45483084173430000111        NV00      
D0145693814  005022000000008492720503001           00130000027500Ùº¯¸      QGMNJH00W      454895187266700001L         BK00      
D0145693814  006022000000008492720503001           00130000027500Ùº¯¸      QGMNJH00W      454895187276600001L         NVWH      
D0145693814  007022000000006889320702001           00004500000990Ùº¯¸      QG0074         45490794154460000125-27     M193      
D0145693814  008022000000009123750701001           00014500003190Ùº¯¸      QGBPJC00       454820443198600001F         WH00      
D0145693820  001022000000009431980703001           00029500006490Ùº¯¸      QGBQJH00       454830351930100001F         BK00      
D0145693820  002022000000009730660701001           00020800004400Ùº¯¸      QGBRJC70       454830839952600001F         WH00      
D0145693820  003022000000009125340801001           00014500003190Ùº¯¸      QGCPJC00       454820447140100001F         WH00      
D0145693820  004022000000009447010805001           00019760004180Ùº¯¸      QGCQJC01       454830353205800001F         WH00      
D0145693820  005022000000009447050805001           00018000003960Ùº¯¸      QGCQJC51       454830353254600001F         RD00      
D0145693835  001022000000009124300107001           00042660008690½Ø¸¿Ý     RGMPJD02       45483086138750000288        BK00      
D0145693835  002022000000009124300107001           00042660008690½Ø¸¿Ý     RGMPJD02       45483086138820000192        BK00      
D0145693840  001022000000009730380101001           00053200010450Ùº¯¸      QGMRJA09       454830840204200001L         BL00      
D0145693840  002022000000009730380101001           00053200010450Ùº¯¸      QGMRJA09       454830840218900001M         WH00      
D0145693840  003022000000009730430107001           00059400012100Ùº¯¸      QGMRJD05       45483084094850000188        NV00      
D0145693840  004022000000009730500107001           00053460010890Ùº¯¸      QGMRJD09       45483084101390000182        GY00      
D0145693840  005022000000009730720308001           00049840009790Ùº¯¸      QGWQJE00       45483035489430000113        NV00      
D0145693840  006022000000009730810301001           00044240008690Ùº¯¸      QGWRJA08       454830841494600001M         WH00      
D0145693840  007022000000009730840307001           00059400012100Ùº¯¸      QGWRJD03       4548308417367000017         NV00      
D0145693840  008022000000009123750701001           00014500003190Ùº¯¸      QGBPJC00       454820443198600001F         WH00      
D0145693856  001022000000009741110101001           00031860006490½Ø¸¿Ý     RGMRJA15       454830861880100001L         WH00      
D0145693861  001022000000009730430107001           00059400012100Ùº¯¸      QGMRJD05       45483084093930000182        GY00      
D0145693861  002022000000009730760307001           00059400012100Ùº¯¸      QGWRJD01       4548308417138000019         WH00      
D0145693861  003022000000008492720503001           00130000027500Ùº¯¸      QGMNJH00W      454830870361300001M         WH00      
D0145693877  001022000000009124300107001           00042660008690½Ø¸¿Ý     RGMPJD02       45482047610760000185        NV00      
D0145693882  001022000000009714390101001           00047600009350ÃÞ»ÝÄºÞÙÌ DGMRJA37       454830838397600001M         BK00      
D0145693898  001022000000009730270101001           00044240008690Ùº¯¸      QGMQJA00       454830351987500001L         NV00      
D0145693898  002022000000009730410101001           00064800013200Ùº¯¸      QGMRJA13W      454830840280600001L         WH00      
D0145693898  003022000000009730710301001           00038640007590Ùº¯¸      QGWQJA01       454830354447100001LL        NV00      
D0145693898  004022000000009730840307001           00059400012100Ùº¯¸      QGWRJD03       4548308417374000019         NV00      
D0145693898  005022000000008492720503001           00130000027500Ùº¯¸      QGMNJH00W      454830870359000001L         WH00      
D0145693898  006022000000009730620701001           00030680006490Ùº¯¸      QGBPJC17       454820443761200001F         WHRD      
D0145693903  001022000000009124300107001           00042660008690½Ø¸¿Ý     RGMPJD02       45483086138820000192        BK00      
D0145693903  002022000000009124300107001           00042660008690½Ø¸¿Ý     RGMPJD02       45482047610900000192        NV00      
D0145693919  001022000000009730270101001           00044240008690Ùº¯¸      QGMQJA00       454830351993600001L         WH00      
D0145693919  002022000000009730430107001           00059400012100Ùº¯¸      QGMRJD05       45483084093930000182        GY00      
D0145693919  003022000000008492730510001           00020000004400Ùº¯¸      QGBNJC00       454895184989800001F         NVWH      
D0145693919  004022000000008492720503001           00130000027500Ùº¯¸      QGMNJH00W      454895187266700001L         BK00      
D0145693919  005022000000008492720503001           00130000027500Ùº¯¸      QGMNJH00W      454830870361300001M         WH00      
D0145693919  006022000000009431980703001           00029500006490Ùº¯¸      QGBQJH00       454830351930100001F         BK00      
D0145693919  007022000000009125340801001           00014500003190Ùº¯¸      QGCPJC00       454820447140100001F         WH00      
D0145693924  001022000000009124300107001           00042660008690½Ø¸¿Ý     RGMPJD02       45482047610690000182        NV00      
D0145693924  002022000000009741110101001           00031860006490½Ø¸¿Ý     RGMRJA15       454830861873300001LL        BL00      
D0145693930  001022000000009730270101001           00044240008690Ùº¯¸      QGMQJA00       454830351990500001L         RD00      
D0145693930  002022000000009730430107001           00059400012100Ùº¯¸      QGMRJD05       45483084093480000188        BK00      
D0145693930  003022000000009447050805001           00018000003960Ùº¯¸      QGCQJC51       454830353254600001F         RD00      
D0145693930  004022000000009731020801001           00018000003960Ùº¯¸      QGCRJC53       454830840016100001F         NV00      
D0145693945  001022000000009730280101001           00053200010450Ùº¯¸      QGMQJA03       454830352026000001LL        NV00      
D0145693945  002022000000009730300107001           00053460010890Ùº¯¸      QGMQJD01       45483035253950000179        GY01      
D0145693945  003022000000009730300107001           00053460010890Ùº¯¸      QGMQJD01       45483035254700000179        GY02      
D0145693945  004022000000009730300107001           00053460010890Ùº¯¸      QGMQJD01       45483035254940000185        GY02      
D0145693945  005022000000009447010805001           00019760004180Ùº¯¸      QGCQJC01       454830353205800001F         WH00      
D0145693945  006022000000009731020801001           00018000003960Ùº¯¸      QGCRJC53       454830840016100001F         NV00      
D0145693945  007022000000006890010802001           00006000001320Ùº¯¸      QGL0078        45490793890750000122-24     N151      
D0145693950  001022000000009730280101001           00053200010450Ùº¯¸      QGMQJA03       454830352032100001LL        WH00      
D0145693950  002022000000008492720503001           00130000027500Ùº¯¸      QGMNJH00W      454895187268100001M         BK00      
D0145693950  003022000000006890020802001           00008500001870Ùº¯¸      QGL0079        45490793890990000122-24     N151      
D0145693966  001022000000009730410101001           00064800013200Ùº¯¸      QGMRJA13W      454830840282000001M         WH00      
D0145693966  002022000000008492720503001           00130000027500Ùº¯¸      QGMNJH00W      454830870359000001L         WH00      
D0145693971  001022000000009730380101001           00053200010450Ùº¯¸      QGMRJA09       454830840212700001L         NV00      
D0145693971  002022000000009730840307001           00059400012100Ùº¯¸      QGWRJD03       4548308417367000017         NV00      
D0145693971  003022000000009730770308001           00053460010890Ùº¯¸      QGWRJE01       4548308417954000017         WH00      
D0145693971  004022000000009123750701001           00014500003190Ùº¯¸      QGBPJC00       454830825517400001F         NV01      
D0145693971  005022000000009730650701001           00018000003960Ùº¯¸      QGBRJC05       454830839877200001F         NV00      
D0145693987  001022000000009714520702001           00007800001650ÃÞ»ÝÄºÞÙÌ DGBPJB00       45482043460370000125-27     GY00      
D0145693992  001022000000009730300107001           00053460010890Ùº¯¸      QGMQJD01       45483035254940000185        GY02      
D0145693992  002022000000009730500107001           00053460010890Ùº¯¸      QGMRJD09       45483084101390000182        GY00      
D0145693992  003022000000008492720503001           00130000027500Ùº¯¸      QGMNJH00W      454830870359000001L         WH00      
D0145693992  004022000000009125340801001           00014500003190Ùº¯¸      QGCPJC00       454820447138800001F         NV00      
D0145693992  005022000000009447050805001           00018000003960Ùº¯¸      QGCQJC51       454830353255300001F         WH00      
D0145694006  001022000000009124300107001           00042660008690½Ø¸¿Ý     RGMPJD02       45482047610070000185        GY02      
D0145694006  002022000000009741070101001           00041040008360½Ø¸¿Ý     RGMRJA07       454830861639500001L         BK00      
D0145694006  003022000000009741110101001           00031860006490½Ø¸¿Ý     RGMRJA15       454830861876400001L         NV00      
D0145694011  001022000000009714100503001           00104000022000ÃÞ»ÝÄºÞÙÌ DGMRJH01W      454830812932100001O         BK00      
D0145694027  001022000000008492720503001           00130000027500Ùº¯¸      QGMNJH00W      454895187266700001L         BK00      
D0145694027  002022000000009447050805001           00018000003960Ùº¯¸      QGCQJC51       454830353255300001F         WH00      
D0145694032  001022000000009730300107001           00053460010890Ùº¯¸      QGMQJD01       45483035254250000188        GY01      
D0145694032  002022000000009730410101001           00064800013200Ùº¯¸      QGMRJA13W      454830840274500001M         NV00      
D0145694032  003022000000006890010802001           00006000001320Ùº¯¸      QGL0078        45490793890750000122-24     N151      
D0145694048  001022000000009123360701001           00015080003190ÃÞ»ÝÄºÞÙÌ DGBPJC00       454830335903700001F         NV01      
D0145694053  001022000000009730270101001           00044240008690Ùº¯¸      QGMQJA00       454830351988200001LL        NV00      
D0145694053  002022000000009730300107001           00053460010890Ùº¯¸      QGMQJD01       45483035255000000188        GY02      
D0145694053  003022000000009730410101001           00064800013200Ùº¯¸      QGMRJA13W      454830840273800001LL        NV00      
D0145694053  004022000000009730740301001           00049840009790Ùº¯¸      QGWRJA04       454830841442700001M         NV00      
D0145694053  005022000000009730760307001           00059400012100Ùº¯¸      QGWRJD01       4548308417053000019         NV00      
D0145694053  006022000000008492730510001           00020000004400Ùº¯¸      QGBNJC00       454895184989800001F         NVWH      
D0145694053  007022000000008492720503001           00130000027500Ùº¯¸      QGMNJH00W      454895187276600001L         NVWH      
D0145694053  008022000000008492720503001           00130000027500Ùº¯¸      QGMNJH00W      454830870361300001M         WH00      
D0145694069  001022000000006889320702001           00004500000990Ùº¯¸      QG0074         45490794154770000225-27     N942      
D0145694069  002022000000009125340801001           00014500003190Ùº¯¸      QGCPJC00       454820447138800002F         NV00      
D0145694074  001022000000009123290107001           00055440010890ÃÞ»ÝÄºÞÙÌ DGMPJD11       45482043557940000182        GY00      
D0145694074  002022000000009123290107001           00055440010890ÃÞ»ÝÄºÞÙÌ DGMPJD11       45482043558480000176        NV00      
D0145694080  001022000000009730270101001           00044240008690Ùº¯¸      QGMQJA00       454830351993600001L         WH00      
D0145694080  002022000000009730300107001           00053460010890Ùº¯¸      QGMQJD01       45483035254010000182        GY01      
D0145694080  003022000000009730380101001           00053200010450Ùº¯¸      QGMRJA09       454830840206600001M         BL00      
D0145694080  004022000000009730380101001           00053200010450Ùº¯¸      QGMRJA09       454830840213400001LL        NV00      
D0145694080  005022000000007710980702001           00005000001100Ùº¯¸      QG0073         45490794154150000125-27     N151      
D0145694080  006022000000009730650701001           00018000003960Ùº¯¸      QGBRJC05       454830839878900001F         WH00      
D0145694080  007022000000009731020801001           00018000003960Ùº¯¸      QGCRJC53       454830840016100001F         NV00      
D0145694080  008022000000009731020801001           00018000003960Ùº¯¸      QGCRJC53       454830840018500001F         WH00      
D0145694095  001022000000009741070101001           00041040008360½Ø¸¿Ý     RGMRJA07       454830861644900001LL        BL00      
D0145694100  001022000000009730430107001           00059400012100Ùº¯¸      QGMRJD05       45483084093240000182        BK00      
D0145694100  002022000000008492730510001           00020000004400Ùº¯¸      QGBNJC00       454895184989800001F         NVWH      
D0145694100  003022000000008492720503001           00130000027500Ùº¯¸      QGMNJH00W      454830870359000001L         WH00      
D0145694100  004022000000009123750701001           00014500003190Ùº¯¸      QGBPJC00       454820443198600001F         WH00      
D0145694116  001022000000009741150107001           00042660008690½Ø¸¿Ý     RGMPJD06       45482047627450000185        BL00      
D0145694116  002022000000009741110101001           00031860006490½Ø¸¿Ý     RGMRJA15       454830861873300001LL        BL00      
D0145694121  001022000000009730300107001           00053460010890Ùº¯¸      QGMQJD01       45483035254870000182        GY02      
D0145694121  002022000000009730300107001           00053460010890Ùº¯¸      QGMQJD01       45483035255620000182        NV00      
D0145694121  003022000000009730380101001           00053200010450Ùº¯¸      QGMRJA09       454830840212700001L         NV00      
D0145694121  004022000000008492730510001           00020000004400Ùº¯¸      QGBNJC00       454895184989800001F         NVWH      
D0145694121  005022000000008494910510001           00019760004180Ùº¯¸      QGCNJC00       454895188120100001F         NV00      
D0145694121  006022000000008492720503001           00130000027500Ùº¯¸      QGMNJH00W      454895187276600001L         NVWH      
D0145694121  007022000000008492720503001           00130000027500Ùº¯¸      QGMNJH00W      454895187278000001M         NVWH      
D0145694121  008022000000008492720503001           00130000027500Ùº¯¸      QGMNJH00W      454830870361300001M         WH00      
D0145694137  001022000000009125340801001           00014500003190Ùº¯¸      QGCPJC00       454820447138800002F         NV00      
D0145694142  001022000000009124300107001           00042660008690½Ø¸¿Ý     RGMPJD02       45482047610760000185        NV00      
D0145694158  001022000000009714110510001           00020280004290ÃÞ»ÝÄºÞÙÌ DGBRJC31       454830812926000001F         BK00      
D0145694158  002022000000009714100503001           00104000022000ÃÞ»ÝÄºÞÙÌ DGMRJH01W      454830812932100001O         BK00      
D0145694158  003022000000009714590701001           00015080003190ÃÞ»ÝÄºÞÙÌ DGBRJC07       454830837855200001F         NV00      
D0145694163  001022000000009730270101001           00044240008690Ùº¯¸      QGMQJA00       454830351987500001L         NV00      
D0145694163  002022000000009730500107001           00053460010890Ùº¯¸      QGMRJD09       45483084101390000182        GY00      
D0145694179  001022000000009730430107001           00059400012100Ùº¯¸      QGMRJD05       45483084094610000182        NV00      
D0145694179  002022000000009730710301001           00038640007590Ùº¯¸      QGWQJA01       454830354454900001L         WH00      
D0145694179  003022000000009123750701001           00014500003190Ùº¯¸      QGBPJC00       454830825517400001F         NV01      
D0145694179  004022000000009730600702001           00004500000990Ùº¯¸      QGBRJB06       45483083984990000125-27     BL00      
D0145694184  001022000000009730270101001           00044240008690Ùº¯¸      QGMQJA00       454830351991200001LL        RD00      
D0145694184  002022000000009730410101001           00064800013200Ùº¯¸      QGMRJA13W      454830840268400001L         LM00      
D0145694184  003022000000009730500107001           00053460010890Ùº¯¸      QGMRJD09       45483084101390000182        GY00      
D0145694184  004022000000009123750701001           00014500003190Ùº¯¸      QGBPJC00       454820443198600001F         WH00      
D0145694184  005022000000009730600702001           00004500000990Ùº¯¸      QGBRJB06       45483083984990000125-27     BL00      
D0145694184  006022000000009730600702001           00004500000990Ùº¯¸      QGBRJB06       45483083985050000125-27     GY00      
D0145694184  007022000000009730600702001           00004500000990Ùº¯¸      QGBRJB06       45483083985120000125-27     NV00      
D0145694184  008022000000009730600702001           00004500000990Ùº¯¸      QGBRJB06       45483083985290000125-27     RD00      
D0145694190  001022000000009741150107001           00042660008690½Ø¸¿Ý     RGMPJD06       45482047628060000182        NV00      
D0145694190  002022000000009741050101001           00034020006930½Ø¸¿Ý     RGMRJA03       454830861522000001M         BK00      
D0145694190  004022000000009741030111001           00053460010890½Ø¸¿Ý     RGMRJA06W      454830861635700001LL        GY00      
D0145694190  005022000000009741110101001           00031860006490½Ø¸¿Ý     RGMRJA15       454830861882500001M         WH00      
D0145694205  001022000000009123290107001           00055440010890ÃÞ»ÝÄºÞÙÌ DGMPJD11       45482043558000000185        GY00      
D0145694205  002022000000009714100503001           00104000022000ÃÞ»ÝÄºÞÙÌ DGMRJH01W      454830812931400001M         BK00      
D0145694210  001022000000009714520702001           00007800001650ÃÞ»ÝÄºÞÙÌ DGBPJB00       45482043460370000125-27     GY00      
D0145694226  001022000000009730410101001           00064800013200Ùº¯¸      QGMRJA13W      454830840281300001LL        WH00      
D0145694226  002022000000009730320106001           00067200013200Ùº¯¸      QGMRJK03       454830841283600001L         BK00      
D0145694226  003022000000009730740301001           00049840009790Ùº¯¸      QGWRJA04       454830841440300001L         NV00      
D0145694226  004022000000009730780308001           00067200013200Ùº¯¸      QGWRJE07       4548308418487000019         ML00      
D0145694226  005022000000009730600702001           00004500000990Ùº¯¸      QGBRJB06       45483083985050000125-27     GY00      
D0145694226  006022000000009731020801001           00018000003960Ùº¯¸      QGCRJC53       454830840016100001F         NV00      
D0145694231  001022000000009123290107001           00055440010890ÃÞ»ÝÄºÞÙÌ DGMPJD11       45482043558790000185        NV00      
D0145694247  001022000000009123370701001           00013520002860ÃÞ»ÝÄºÞÙÌ DGBPJC50       454820434634100001F         BK00      
D0145694252  001022000000009730300107001           00053460010890Ùº¯¸      QGMQJD01       45483035254940000185        GY02      
D0145694252  002022000000009730380101001           00053200010450Ùº¯¸      QGMRJA09       454830840212700001L         NV00      
D0145694252  003022000000009123750701001           00014500003190Ùº¯¸      QGBPJC00       454830825517400001F         NV01      
D0145694252  004022000000009447010805001           00019760004180Ùº¯¸      QGCQJC01       454830353205800001F         WH00      
D0145694252  005022000000009447050805001           00018000003960Ùº¯¸      QGCQJC51       454830353255300001F         WH00      
D0145694268  001022000000009124300107001           00042660008690½Ø¸¿Ý     RGMPJD02       45483086138680000185        BK00      
D0145694268  002022000000009741040101001           00035640007260½Ø¸¿Ý     RGMRJA02       454830861479700001M         GY00      
D0145694273  001022000000009123290107001           00055440010890ÃÞ»ÝÄºÞÙÌ DGMPJD11       45482043557870000179        GY00      
D0145694273  002022000000009123290107001           00055440010890ÃÞ»ÝÄºÞÙÌ DGMPJD11       45482043558170000188        GY00      
D0145694289  001022000000009730500107001           00053460010890Ùº¯¸      QGMRJD09       45483084102900000188        WH00      
D0145694289  002022000000009730600702001           00004500000990Ùº¯¸      QGBRJB06       45483083985290000125-27     RD00      
D0145694289  003022000000009125340801001           00014500003190Ùº¯¸      QGCPJC00       454820447138800001F         NV00      
D0145694289  004022000000009125340801001           00014500003190Ùº¯¸      QGCPJC00       454820447140100001F         WH00      
D0145694289  005022000000009731020801001           00018000003960Ùº¯¸      QGCRJC53       454830840016100001F         NV00      
D0145694294  001022000000009124300107001           00042660008690½Ø¸¿Ý     RGMPJD02       45483086138820000192        BK00      
D0145694294  002022000000009124300107001           00042660008690½Ø¸¿Ý     RGMPJD02       45482047609940000182        GY02      
D0145694294  003022000000009741030111001           00053460010890½Ø¸¿Ý     RGMRJA06W      454830861634000001L         GY00      
D0145694300  001022000000009730410101001           00064800013200Ùº¯¸      QGMRJA13W      454830840269100001LL        LM00      
D0145694300  002022000000009730430107001           00059400012100Ùº¯¸      QGMRJD05       45483084094780000185        NV00      
D0145694300  003022000000009730500107001           00053460010890Ùº¯¸      QGMRJD09       45483084101220000179        GY00      
D0145694300  004022000000009730770308001           00053460010890Ùº¯¸      QGWRJE01       45483084179300000111        WH00      
D0145694315  001022000000009124300107001           00042660008690½Ø¸¿Ý     RGMPJD02       45482047609870000179        GY02      
D0145694315  002022000000009741110101001           00031860006490½Ø¸¿Ý     RGMRJA15       454830861873300001LL        BL00      
D0145694320  001022000000009714100503001           00104000022000ÃÞ»ÝÄºÞÙÌ DGMRJH01W      454830812930700001L         BK00      
D0145694336  001022000000009730300107001           00053460010890Ùº¯¸      QGMQJD01       45483035255550000179        NV00      
D0145694336  002022000000009730430107001           00059400012100Ùº¯¸      QGMRJD05       45483084093170000179        BK00      
D0145694336  003022000000009730710301001           00038640007590Ùº¯¸      QGWQJA01       454830354456300001M         WH00      
D0145694341  001022000000009730380101001           00053200010450Ùº¯¸      QGMRJA09       454830840212700001L         NV00      
D0145694341  002022000000009730410101001           00064800013200Ùº¯¸      QGMRJA13W      454830840281300001LL        WH00      
D0145694341  003022000000009730500107001           00053460010890Ùº¯¸      QGMRJD09       45483084102900000188        WH00      
D0145694341  004022000000009123750701001           00014500003190Ùº¯¸      QGBPJC00       454830825517400001F         NV01      
D0145694341  005022000000009125340801001           00014500003190Ùº¯¸      QGCPJC00       454820447138800001F         NV00      
D0145694357  001022000000009730300107001           00053460010890Ùº¯¸      QGMQJD01       45483035254700000179        GY02      
D0145694357  002022000000008492730510001           00020000004400Ùº¯¸      QGBNJC00       454895184989800001F         NVWH      
D0145694357  003022000000009125340801001           00014500003190Ùº¯¸      QGCPJC00       454820447138800001F         NV00      
D0145694357  004022000000009125340801001           00014500003190Ùº¯¸      QGCPJC00       454820447140100001F         WH00      
D0145694362  001022000000009714530702001           00007800001650ÃÞ»ÝÄºÞÙÌ DGBPJB01       45482043460750000125-27     WH00      
D0145694378  001022000000009730300107001           00053460010890Ùº¯¸      QGMQJD01       45483035255000000188        GY02      
D0145694378  002022000000009730380101001           00053200010450Ùº¯¸      QGMRJA09       454830840214100001M         NV00      
D0145694378  003022000000009730430107001           00059400012100Ùº¯¸      QGMRJD05       45483084093170000179        BK00      
D0145694378  004022000000009730500107001           00053460010890Ùº¯¸      QGMRJD09       45483084101390000182        GY00      
D0145694378  005022000000009730710301001           00038640007590Ùº¯¸      QGWQJA01       454830354446400001L         NV00      
D0145694378  006022000000009447050805001           00018000003960Ùº¯¸      QGCQJC51       454830353253900001F         NV00      
D0145694383  001022000000009124300107001           00042660008690½Ø¸¿Ý     RGMPJD02       45482047610830000188        NV00      
D0145694399  001022000000009730430107001           00059400012100Ùº¯¸      QGMRJD05       45483084094160000188        GY00      
D0145694399  002022000000008492720503001           00130000027500Ùº¯¸      QGMNJH00W      454830870359000001L         WH00      
D0145694399  003022000000009447050805001           00018000003960Ùº¯¸      QGCQJC51       454830353255300001F         WH00      
D0145694399  004022000000006890010802001           00006000001320Ùº¯¸      QGL0078        45490793890680000122-24     M193      
D0145694404  001022000000009741110101001           00031860006490½Ø¸¿Ý     RGMRJA15       454830861874000001M         BL00      
D0145694410  001022000000009714100503001           00104000022000ÃÞ»ÝÄºÞÙÌ DGMRJH01W      454830812931400001M         BK00      
D0145694425  001022000000009124300107001           00042660008690½Ø¸¿Ý     RGMPJD02       45483086138510000182        BK00      
D0145694425  002022000000009124300107001           00042660008690½Ø¸¿Ý     RGMPJD02       45483086138750000188        BK00      
D0145694430  001022000000007710980702001           00005000001100Ùº¯¸      QG0073         45490794154150000125-27     N151      
D0145694430  002022000000009447050805001           00018000003960Ùº¯¸      QGCQJC51       454830353253900001F         NV00      
D0145694446  001022000000009123370701001           00013520002860ÃÞ»ÝÄºÞÙÌ DGBPJC50       454820434634100001F         BK00      
D0145694451  001022000000009730280101001           00053200010450Ùº¯¸      QGMQJA03       454830352027700001M         NV00      
D0145694451  002022000000009730410101001           00064800013200Ùº¯¸      QGMRJA13W      454830840272100001L         NV00      
D0145694451  003022000000009730410101001           00064800013200Ùº¯¸      QGMRJA13W      454830840273800001LL        NV00      
D0145694451  004022000000009730450101001           00061600012100Ùº¯¸      QGMRJA15       454830840324700001L         NV00      
D0145694451  005022000000009730750301001           00047600009350Ùº¯¸      QGWRJA06       454830841460100001L         WH00      
D0145694451  006022000000009730760307001           00059400012100Ùº¯¸      QGWRJD01       45483084170390000113        NV00      
D0145694451  007022000000008492720503001           00130000027500Ùº¯¸      QGMNJH00W      454895187266700001L         BK00      
D0145694451  008022000000009730600702001           00004500000990Ùº¯¸      QGBRJB06       45483083985120000125-27     NV00      
D0145694467  001022000000009124300107001           00042660008690½Ø¸¿Ý     RGMPJD02       45483086138750000188        BK00      
D0145694467  002022000000009124300107001           00042660008690½Ø¸¿Ý     RGMPJD02       45482047610690000182        NV00      
D0145694467  003022000000009741040101001           00035640007260½Ø¸¿Ý     RGMRJA02       454830861478000001LL        GY00      
D0145694472  001022000000009714100503001           00104000022000ÃÞ»ÝÄºÞÙÌ DGMRJH01W      454830812932100001O         BK00      
D0145694488  001022000000009730280101001           00053200010450Ùº¯¸      QGMQJA03       454830352026000001LL        NV00      
D0145694488  002022000000009447050805001           00018000003960Ùº¯¸      QGCQJC51       454830353253900001F         NV00      
D0145694493  001022000000009730500107001           00053460010890Ùº¯¸      QGMRJD09       45483084101220000179        GY00      
D0145694493  002022000000009123750701001           00014500003190Ùº¯¸      QGBPJC00       454820443198600001F         WH00      
D0145694509  001022000000009730300107001           00053460010890Ùº¯¸      QGMQJD01       45483035254870000182        GY02      
D0145694509  002022000000009730300107001           00053460010890Ùº¯¸      QGMQJD01       45483035255620000182        NV00      
D0145694509  003022000000009730710301001           00038640007590Ùº¯¸      QGWQJA01       454830354447100001LL        NV00      
D0145694509  004022000000009125340801001           00014500003190Ùº¯¸      QGCPJC00       454820447138800001F         NV00      
D0145694514  001022000000009730300107001           00053460010890Ùº¯¸      QGMQJD01       45483035254250000188        GY01      
D0145694514  002022000000009730410101001           00064800013200Ùº¯¸      QGMRJA13W      454830840272100001L         NV00      
D0145694514  003022000000009730430107001           00059400012100Ùº¯¸      QGMRJD05       45483084093170000179        BK00      
D0145694514  004022000000009730650701001           00018000003960Ùº¯¸      QGBRJC05       454830839878900001F         WH00      
D0145694520  001022000000009730300107001           00053460010890Ùº¯¸      QGMQJD01       45483035253950000179        GY01      
D0145694520  002022000000009730410101001           00064800013200Ùº¯¸      QGMRJA13W      454830840274500001M         NV00      
D0145694520  003022000000009730500107001           00053460010890Ùº¯¸      QGMRJD09       45483084101220000179        GY00      
D0145694520  004022000000008492720503001           00130000027500Ùº¯¸      QGMNJH00W      454830870359000001L         WH00      
D0145694520  005022000000009730600702001           00004500000990Ùº¯¸      QGBRJB06       45483083985050000125-27     GY00      
D0145694520  006022000000009730650701001           00018000003960Ùº¯¸      QGBRJC05       454830839877200001F         NV00      
D0145694535  001022000000009124300107001           00042660008690½Ø¸¿Ý     RGMPJD02       45483086138680000185        BK00      
D0145694535  002022000000009741150107001           00042660008690½Ø¸¿Ý     RGMPJD06       45482047628060000182        NV00      
D0145694535  003022000000009741070101001           00041040008360½Ø¸¿Ý     RGMRJA07       454830861639500001L         BK00      
D0145694540  001022000000009730380101001           00053200010450Ùº¯¸      QGMRJA09       454830840216500001L         WH00      
D0145694540  002022000000006889320702001           00004500000990Ùº¯¸      QG0074         45490794154770000225-27     N942      
D0145694540  003022000000009125340801001           00014500003190Ùº¯¸      QGCPJC00       454820447138800001F         NV00      
D0145694556  001022000000009714100503001           00104000022000ÃÞ»ÝÄºÞÙÌ DGMRJH01W      454830812932100001O         BK00      
D0145694561  001022000000009730300107001           00053460010890Ùº¯¸      QGMQJD01       45483035255620000182        NV00      
D0145694561  002022000000009125340801001           00014500003190Ùº¯¸      QGCPJC00       454820447140100001F         WH00      
D0145694577  001022000000009124300107001           00042660008690½Ø¸¿Ý     RGMPJD02       45483086138680000185        BK00      
D0145694577  002022000000009741110101001           00031860006490½Ø¸¿Ý     RGMRJA15       454830861876400001L         NV00      
D0145694577  003022000000009741110101001           00031860006490½Ø¸¿Ý     RGMRJA15       454830861880100001L         WH00      
D0145694577  004022000000009741110101001           00031860006490½Ø¸¿Ý     RGMRJA15       454830861882500001M         WH00      
D0145694582  001022000000009730500107001           00053460010890Ùº¯¸      QGMRJD09       45483084101390000182        GY00      
D0145694598  001022000000009714100503001           00104000022000ÃÞ»ÝÄºÞÙÌ DGMRJH01W      454830812930700001L         BK00      
D0145694603  001022000000009730270101001           00044240008690Ùº¯¸      QGMQJA00       454830351987500001L         NV00      
D0145694603  002022000000009730300107001           00053460010890Ùº¯¸      QGMQJD01       45483035254870000182        GY02      
D0145694603  003022000000009730380101001           00053200010450Ùº¯¸      QGMRJA09       454830840213400001LL        NV00      
D0145694603  004022000000009730770308001           00053460010890Ùº¯¸      QGWRJE01       45483084178620000113        NV00      
D0145694603  005022000000009123750701001           00014500003190Ùº¯¸      QGBPJC00       454830825517400001F         NV01      
D0145694603  006022000000009125340801001           00014500003190Ùº¯¸      QGCPJC00       454820447140100001F         WH00      
D0145694619  001022000000008492730510001           00020000004400Ùº¯¸      QGBNJC00       454895184989800001F         NVWH      
D0145694619  002022000000008492720503001           00130000027500Ùº¯¸      QGMNJH00W      454830870360600001LL        WH00      
D0145694624  001022000000009730280101001           00053200010450Ùº¯¸      QGMQJA03       454830352031400001L         WH00      
D0145694624  002022000000009730300107001           00053460010890Ùº¯¸      QGMQJD01       45483035255790000185        NV00      
D0145694624  003022000000009730430107001           00059400012100Ùº¯¸      QGMRJD05       45483084093930000182        GY00      
D0145694624  004022000000009730430107001           00059400012100Ùº¯¸      QGMRJD05       45483084094610000182        NV00      
D0145694630  001022000000009124300107001           00042660008690½Ø¸¿Ý     RGMPJD02       45483086138510000182        BK00      
D0145694645  001022000000009714100503001           00104000022000ÃÞ»ÝÄºÞÙÌ DGMRJH01W      454830812939000001M         GY00      
D0145694650  001022000000008492730510001           00020000004400Ùº¯¸      QGBNJC00       454895184987400001F         BK00      
D0145694650  002022000000008492740510001           00023000005060Ùº¯¸      QGBNJC70       454895185110500001F         GY00      
D0145694650  003022000000008492720503001           00130000027500Ùº¯¸      QGMNJH00W      454895187268100001M         BK00      
D0145694650  004022000000009730620701001           00030680006490Ùº¯¸      QGBPJC17       454820443761200001F         WHRD      
D0145694666  001022000000009730770308001           00053460010890Ùº¯¸      QGWRJE01       4548308417879000017         NV00      
D0145694666  002022000000009123750701001           00014500003190Ùº¯¸      QGBPJC00       454830825517400001F         NV01      
D0145694671  001022000000009730300107001           00053460010890Ùº¯¸      QGMQJD01       45483035254010000182        GY01      
D0145694671  002022000000009730300107001           00053460010890Ùº¯¸      QGMQJD01       45483035255000000188        GY02      
D0145694671  003022000000009125340801001           00014500003190Ùº¯¸      QGCPJC00       454820447140100001F         WH00      
D0145694687  001022000000009730500107001           00053460010890Ùº¯¸      QGMRJD09       45483084101390000182        GY00      
D0145694687  002022000000008492730510001           00020000004400Ùº¯¸      QGBNJC00       454895184989800001F         NVWH      
D0145694687  003022000000009125340801001           00014500003190Ùº¯¸      QGCPJC00       454820447140100001F         WH00      
D0145694687  004022000000006890010802001           00006000001320Ùº¯¸      QGL0078        45490793890680000122-24     M193      
D0145694692  001022000000009123750701001           00014500003190Ùº¯¸      QGBPJC00       454820443198600001F         WH00      
D0145694708  001022000000009730500107001           00053460010890Ùº¯¸      QGMRJD09       45483084101390000182        GY00      
D0145694708  002022000000009731070804001           00016640003520Ùº¯¸      QGCRJD51       454830840050500001F         WH00      
D0145694713  001022000000009730300107001           00053460010890Ùº¯¸      QGMQJD01       45483035255790000185        NV00      
D0145694729  001022000000009730280101001           00053200010450Ùº¯¸      QGMQJA03       454830352031400001L         WH00      
D0145694729  002022000000009730300107001           00053460010890Ùº¯¸      QGMQJD01       45483035255550000179        NV00      
D0145694729  003022000000009730410101001           00064800013200Ùº¯¸      QGMRJA13W      454830840273800001LL        NV00      
D0145694734  001022000000009124300107001           00042660008690½Ø¸¿Ý     RGMPJD02       45483086138510000182        BK00      
D0145694740  001022000000009730270101001           00044240008690Ùº¯¸      QGMQJA00       454830351989900001M         NV00      
D0145694740  002022000000009730300107001           00053460010890Ùº¯¸      QGMQJD01       45483035253950000179        GY01      
D0145694740  003022000000009730740301001           00049840009790Ùº¯¸      QGWRJA04       454830841441000001LL        NV00      
D0145694740  004022000000009730770308001           00053460010890Ùº¯¸      QGWRJE01       45483084178620000113        NV00      
D0145694740  005022000000008492730510001           00020000004400Ùº¯¸      QGBNJC00       454895184989800001F         NVWH      
D0145694740  006022000000006889320702001           00004500000990Ùº¯¸      QG0074         45490794154460000125-27     M193      
D0145694755  001022000000009730280101001           00053200010450Ùº¯¸      QGMQJA03       454830352031400001L         WH00      
D0145694755  002022000000009730280101001           00053200010450Ùº¯¸      QGMQJA03       454830352032100001LL        WH00      
D0145694755  003022000000009730380101001           00053200010450Ùº¯¸      QGMRJA09       454830840204200001L         BL00      
D0145694755  004022000000009730840307001           00059400012100Ùº¯¸      QGWRJD03       4548308417411000019         WH00      
D0145694755  005022000000008492730510001           00020000004400Ùº¯¸      QGBNJC00       454895184989800001F         NVWH      
D0145694755  006022000000009123750701001           00014500003190Ùº¯¸      QGBPJC00       454830825517400001F         NV01      
D0145694755  007022000000009125340801001           00014500003190Ùº¯¸      QGCPJC00       454820447140100001F         WH00      
D0145694755  008022000000009731060804001           00012500002750Ùº¯¸      QGCRJD50       454830840047500001F         WH00      
D0145694760  001022000000008494910510001           00019760004180Ùº¯¸      QGCNJC00       454895188122500001F         WH00      
D0145694760  002022000000008492720503001           00130000027500Ùº¯¸      QGMNJH00W      454895187276600001L         NVWH      
D0145694760  003022000000009123750701001           00014500003190Ùº¯¸      QGBPJC00       454820443198600001F         WH00      
D0145694760  004022000000009730650701001           00018000003960Ùº¯¸      QGBRJC05       454830839878900001F         WH00      
D0145694760  005022000000009730680704001           00012500002750Ùº¯¸      QGBRJD50       454830839957100001F         NV00      
D0145694760  006022000000009447010805001           00019760004180Ùº¯¸      QGCQJC01       454830353205800001F         WH00      
D0145694760  007022000000009447050805001           00018000003960Ùº¯¸      QGCQJC51       454830353255300001F         WH00      
D0145694760  008022000000009731060804001           00012500002750Ùº¯¸      QGCRJD50       454830840047500001F         WH00      
